{
  "_format": "hh-sol-artifact-1",
  "contractName": "MyToken",
  "sourceName": "contracts/erc20.sol",
  "abi": [
    {
      "inputs": [],
      "stateMutability": "nonpayable",
      "type": "constructor"
    },
    {
      "inputs": [
        {
          "internalType": "address",
          "name": "spender",
          "type": "address"
        },
        {
          "internalType": "uint256",
          "name": "allowance",
          "type": "uint256"
        },
        {
          "internalType": "uint256",
          "name": "needed",
          "type": "uint256"
        }
      ],
      "name": "ERC20InsufficientAllowance",
      "type": "error"
    },
    {
      "inputs": [
        {
          "internalType": "address",
          "name": "sender",
          "type": "address"
        },
        {
          "internalType": "uint256",
          "name": "balance",
          "type": "uint256"
        },
        {
          "internalType": "uint256",
          "name": "needed",
          "type": "uint256"
        }
      ],
      "name": "ERC20InsufficientBalance",
      "type": "error"
    },
    {
      "inputs": [
        {
          "internalType": "address",
          "name": "approver",
          "type": "address"
        }
      ],
      "name": "ERC20InvalidApprover",
      "type": "error"
    },
    {
      "inputs": [
        {
          "internalType": "address",
          "name": "receiver",
          "type": "address"
        }
      ],
      "name": "ERC20InvalidReceiver",
      "type": "error"
    },
    {
      "inputs": [
        {
          "internalType": "address",
          "name": "sender",
          "type": "address"
        }
      ],
      "name": "ERC20InvalidSender",
      "type": "error"
    },
    {
      "inputs": [
        {
          "internalType": "address",
          "name": "spender",
          "type": "address"
        }
      ],
      "name": "ERC20InvalidSpender",
      "type": "error"
    },
    {
      "anonymous": false,
      "inputs": [
        {
          "indexed": true,
          "internalType": "address",
          "name": "owner",
          "type": "address"
        },
        {
          "indexed": true,
          "internalType": "address",
          "name": "spender",
          "type": "address"
        },
        {
          "indexed": false,
          "internalType": "uint256",
          "name": "value",
          "type": "uint256"
        }
      ],
      "name": "Approval",
      "type": "event"
    },
    {
      "anonymous": false,
      "inputs": [
        {
          "indexed": true,
          "internalType": "address",
          "name": "from",
          "type": "address"
        },
        {
          "indexed": true,
          "internalType": "address",
          "name": "to",
          "type": "address"
        },
        {
          "indexed": false,
          "internalType": "uint256",
          "name": "value",
          "type": "uint256"
        }
      ],
      "name": "Transfer",
      "type": "event"
    },
    {
      "inputs": [
        {
          "internalType": "address",
          "name": "owner",
          "type": "address"
        },
        {
          "internalType": "address",
          "name": "spender",
          "type": "address"
        }
      ],
      "name": "allowance",
      "outputs": [
        {
          "internalType": "uint256",
          "name": "",
          "type": "uint256"
        }
      ],
      "stateMutability": "view",
      "type": "function"
    },
    {
      "inputs": [
        {
          "internalType": "address",
          "name": "spender",
          "type": "address"
        },
        {
          "internalType": "uint256",
          "name": "value",
          "type": "uint256"
        }
      ],
      "name": "approve",
      "outputs": [
        {
          "internalType": "bool",
          "name": "",
          "type": "bool"
        }
      ],
      "stateMutability": "nonpayable",
      "type": "function"
    },
    {
      "inputs": [
        {
          "internalType": "address",
          "name": "account",
          "type": "address"
        }
      ],
      "name": "balanceOf",
      "outputs": [
        {
          "internalType": "uint256",
          "name": "",
          "type": "uint256"
        }
      ],
      "stateMutability": "view",
      "type": "function"
    },
    {
      "inputs": [],
      "name": "decimals",
      "outputs": [
        {
          "internalType": "uint8",
          "name": "",
          "type": "uint8"
        }
      ],
      "stateMutability": "view",
      "type": "function"
    },
    {
      "inputs": [
        {
          "internalType": "uint256",
          "name": "_amount",
          "type": "uint256"
        }
      ],
      "name": "mint",
      "outputs": [],
      "stateMutability": "nonpayable",
      "type": "function"
    },
    {
      "inputs": [],
      "name": "name",
      "outputs": [
        {
          "internalType": "string",
          "name": "",
          "type": "string"
        }
      ],
      "stateMutability": "view",
      "type": "function"
    },
    {
      "inputs": [],
      "name": "symbol",
      "outputs": [
        {
          "internalType": "string",
          "name": "",
          "type": "string"
        }
      ],
      "stateMutability": "view",
      "type": "function"
    },
    {
      "inputs": [],
      "name": "totalSupply",
      "outputs": [
        {
          "internalType": "uint256",
          "name": "",
          "type": "uint256"
        }
      ],
      "stateMutability": "view",
      "type": "function"
    },
    {
      "inputs": [
        {
          "internalType": "address",
          "name": "to",
          "type": "address"
        },
        {
          "internalType": "uint256",
          "name": "value",
          "type": "uint256"
        }
      ],
      "name": "transfer",
      "outputs": [
        {
          "internalType": "bool",
          "name": "",
          "type": "bool"
        }
      ],
      "stateMutability": "nonpayable",
      "type": "function"
    },
    {
      "inputs": [
        {
          "internalType": "address",
          "name": "from",
          "type": "address"
        },
        {
          "internalType": "address",
          "name": "to",
          "type": "address"
        },
        {
          "internalType": "uint256",
          "name": "value",
          "type": "uint256"
        }
      ],
      "name": "transferFrom",
      "outputs": [
        {
          "internalType": "bool",
          "name": "",
          "type": "bool"
        }
      ],
      "stateMutability": "nonpayable",
      "type": "function"
    }
  ],
  "bytecode": "0x608060405273b5adb29c608cfbfa5d6bb216ccc80ecbd76a45f1600560006101000a81548173ffffffffffffffffffffffffffffffffffffffff021916908373ffffffffffffffffffffffffffffffffffffffff1602179055503480156200006657600080fd5b506040518060400160405280600781526020017f4d79546f6b656e000000000000000000000000000000000000000000000000008152506040518060400160405280600381526020017f4d595400000000000000000000000000000000000000000000000000000000008152508160039081620000e491906200075d565b508060049081620000f691906200075d565b50505073b5adb29c608cfbfa5d6bb216ccc80ecbd76a45f1600560006101000a81548173ffffffffffffffffffffffffffffffffffffffff021916908373ffffffffffffffffffffffffffffffffffffffff160217905550600073ffffffffffffffffffffffffffffffffffffffff16600560009054906101000a900473ffffffffffffffffffffffffffffffffffffffff1673ffffffffffffffffffffffffffffffffffffffff1603620001e2576040517f08c379a0000000000000000000000000000000000000000000000000000000008152600401620001d990620008a5565b60405180910390fd5b62000220600560009054906101000a900473ffffffffffffffffffffffffffffffffffffffff1669043c33c19375648000006200022660201b60201c565b620009fe565b600073ffffffffffffffffffffffffffffffffffffffff168273ffffffffffffffffffffffffffffffffffffffff16036200029b5760006040517fec442f050000000000000000000000000000000000000000000000000000000081526004016200029291906200090c565b60405180910390fd5b620002af60008383620002b360201b60201c565b5050565b600073ffffffffffffffffffffffffffffffffffffffff168373ffffffffffffffffffffffffffffffffffffffff160362000309578060026000828254620002fc919062000958565b92505081905550620003df565b60008060008573ffffffffffffffffffffffffffffffffffffffff1673ffffffffffffffffffffffffffffffffffffffff1681526020019081526020016000205490508181101562000398578381836040517fe450d38c0000000000000000000000000000000000000000000000000000000081526004016200038f93929190620009a4565b60405180910390fd5b8181036000808673ffffffffffffffffffffffffffffffffffffffff1673ffffffffffffffffffffffffffffffffffffffff16815260200190815260200160002081905550505b600073ffffffffffffffffffffffffffffffffffffffff168273ffffffffffffffffffffffffffffffffffffffff16036200042a578060026000828254039250508190555062000477565b806000808473ffffffffffffffffffffffffffffffffffffffff1673ffffffffffffffffffffffffffffffffffffffff168152602001908152602001600020600082825401925050819055505b8173ffffffffffffffffffffffffffffffffffffffff168373ffffffffffffffffffffffffffffffffffffffff167fddf252ad1be2c89b69c2b068fc378daa952ba7f163c4a11628f55a4df523b3ef83604051620004d69190620009e1565b60405180910390a3505050565b600081519050919050565b7f4e487b7100000000000000000000000000000000000000000000000000000000600052604160045260246000fd5b7f4e487b7100000000000000000000000000000000000000000000000000000000600052602260045260246000fd5b600060028204905060018216806200056557607f821691505b6020821081036200057b576200057a6200051d565b5b50919050565b60008190508160005260206000209050919050565b60006020601f8301049050919050565b600082821b905092915050565b600060088302620005e57fffffffffffffffffffffffffffffffffffffffffffffffffffffffffffffffff82620005a6565b620005f18683620005a6565b95508019841693508086168417925050509392505050565b6000819050919050565b6000819050919050565b60006200063e62000638620006328462000609565b62000613565b62000609565b9050919050565b6000819050919050565b6200065a836200061d565b62000672620006698262000645565b848454620005b3565b825550505050565b600090565b620006896200067a565b620006968184846200064f565b505050565b5b81811015620006be57620006b26000826200067f565b6001810190506200069c565b5050565b601f8211156200070d57620006d78162000581565b620006e28462000596565b81016020851015620006f2578190505b6200070a620007018562000596565b8301826200069b565b50505b505050565b600082821c905092915050565b6000620007326000198460080262000712565b1980831691505092915050565b60006200074d83836200071f565b9150826002028217905092915050565b6200076882620004e3565b67ffffffffffffffff811115620007845762000783620004ee565b5b6200079082546200054c565b6200079d828285620006c2565b600060209050601f831160018114620007d55760008415620007c0578287015190505b620007cc85826200073f565b8655506200083c565b601f198416620007e58662000581565b60005b828110156200080f57848901518255600182019150602085019450602081019050620007e8565b868310156200082f57848901516200082b601f8916826200071f565b8355505b6001600288020188555050505b505050505050565b600082825260208201905092915050565b7f5a65726f2061646472657373206e6f7420616c6c6f7765640000000000000000600082015250565b60006200088d60188362000844565b91506200089a8262000855565b602082019050919050565b60006020820190508181036000830152620008c0816200087e565b9050919050565b600073ffffffffffffffffffffffffffffffffffffffff82169050919050565b6000620008f482620008c7565b9050919050565b6200090681620008e7565b82525050565b6000602082019050620009236000830184620008fb565b92915050565b7f4e487b7100000000000000000000000000000000000000000000000000000000600052601160045260246000fd5b6000620009658262000609565b9150620009728362000609565b92508282019050808211156200098d576200098c62000929565b5b92915050565b6200099e8162000609565b82525050565b6000606082019050620009bb6000830186620008fb565b620009ca602083018562000993565b620009d9604083018462000993565b949350505050565b6000602082019050620009f8600083018462000993565b92915050565b6110af8062000a0e6000396000f3fe608060405234801561001057600080fd5b506004361061009e5760003560e01c806370a082311161006657806370a082311461015d57806395d89b411461018d578063a0712d68146101ab578063a9059cbb146101c7578063dd62ed3e146101f75761009e565b806306fdde03146100a3578063095ea7b3146100c157806318160ddd146100f157806323b872dd1461010f578063313ce5671461013f575b600080fd5b6100ab610227565b6040516100b89190610c02565b60405180910390f35b6100db60048036038101906100d69190610cbd565b6102b9565b6040516100e89190610d18565b60405180910390f35b6100f96102dc565b6040516101069190610d42565b60405180910390f35b61012960048036038101906101249190610d5d565b6102e6565b6040516101369190610d18565b60405180910390f35b610147610315565b6040516101549190610dcc565b60405180910390f35b61017760048036038101906101729190610de7565b61031e565b6040516101849190610d42565b60405180910390f35b610195610366565b6040516101a29190610c02565b60405180910390f35b6101c560048036038101906101c09190610e14565b6103f8565b005b6101e160048036038101906101dc9190610cbd565b6104a8565b6040516101ee9190610d18565b60405180910390f35b610211600480360381019061020c9190610e41565b6104cb565b60405161021e9190610d42565b60405180910390f35b60606003805461023690610eb0565b80601f016020809104026020016040519081016040528092919081815260200182805461026290610eb0565b80156102af5780601f10610284576101008083540402835291602001916102af565b820191906000526020600020905b81548152906001019060200180831161029257829003601f168201915b5050505050905090565b6000806102c4610552565b90506102d181858561055a565b600191505092915050565b6000600254905090565b6000806102f1610552565b90506102fe85828561056c565b610309858585610600565b60019150509392505050565b60006012905090565b60008060008373ffffffffffffffffffffffffffffffffffffffff1673ffffffffffffffffffffffffffffffffffffffff168152602001908152602001600020549050919050565b60606004805461037590610eb0565b80601f01602080910402602001604051908101604052809291908181526020018280546103a190610eb0565b80156103ee5780601f106103c3576101008083540402835291602001916103ee565b820191906000526020600020905b8154815290600101906020018083116103d157829003601f168201915b5050505050905090565b600560009054906101000a900473ffffffffffffffffffffffffffffffffffffffff1673ffffffffffffffffffffffffffffffffffffffff163373ffffffffffffffffffffffffffffffffffffffff1614610488576040517f08c379a000000000000000000000000000000000000000000000000000000000815260040161047f90610f53565b60405180910390fd5b6104a533670de0b6b3a7640000836104a09190610fa2565b6106f4565b50565b6000806104b3610552565b90506104c0818585610600565b600191505092915050565b6000600160008473ffffffffffffffffffffffffffffffffffffffff1673ffffffffffffffffffffffffffffffffffffffff16815260200190815260200160002060008373ffffffffffffffffffffffffffffffffffffffff1673ffffffffffffffffffffffffffffffffffffffff16815260200190815260200160002054905092915050565b600033905090565b6105678383836001610776565b505050565b600061057884846104cb565b90507fffffffffffffffffffffffffffffffffffffffffffffffffffffffffffffffff81146105fa57818110156105ea578281836040517ffb8f41b20000000000000000000000000000000000000000000000000000000081526004016105e193929190610ff3565b60405180910390fd5b6105f984848484036000610776565b5b50505050565b600073ffffffffffffffffffffffffffffffffffffffff168373ffffffffffffffffffffffffffffffffffffffff16036106725760006040517f96c6fd1e000000000000000000000000000000000000000000000000000000008152600401610669919061102a565b60405180910390fd5b600073ffffffffffffffffffffffffffffffffffffffff168273ffffffffffffffffffffffffffffffffffffffff16036106e45760006040517fec442f050000000000000000000000000000000000000000000000000000000081526004016106db919061102a565b60405180910390fd5b6106ef83838361094d565b505050565b600073ffffffffffffffffffffffffffffffffffffffff168273ffffffffffffffffffffffffffffffffffffffff16036107665760006040517fec442f0500000000000000000000000000000000000000000000000000000000815260040161075d919061102a565b60405180910390fd5b6107726000838361094d565b5050565b600073ffffffffffffffffffffffffffffffffffffffff168473ffffffffffffffffffffffffffffffffffffffff16036107e85760006040517fe602df050000000000000000000000000000000000000000000000000000000081526004016107df919061102a565b60405180910390fd5b600073ffffffffffffffffffffffffffffffffffffffff168373ffffffffffffffffffffffffffffffffffffffff160361085a5760006040517f94280d62000000000000000000000000000000000000000000000000000000008152600401610851919061102a565b60405180910390fd5b81600160008673ffffffffffffffffffffffffffffffffffffffff1673ffffffffffffffffffffffffffffffffffffffff16815260200190815260200160002060008573ffffffffffffffffffffffffffffffffffffffff1673ffffffffffffffffffffffffffffffffffffffff168152602001908152602001600020819055508015610947578273ffffffffffffffffffffffffffffffffffffffff168473ffffffffffffffffffffffffffffffffffffffff167f8c5be1e5ebec7d5bd14f71427d1e84f3dd0314c0f7b2291e5b200ac8c7c3b9258460405161093e9190610d42565b60405180910390a35b50505050565b600073ffffffffffffffffffffffffffffffffffffffff168373ffffffffffffffffffffffffffffffffffffffff160361099f5780600260008282546109939190611045565b92505081905550610a72565b60008060008573ffffffffffffffffffffffffffffffffffffffff1673ffffffffffffffffffffffffffffffffffffffff16815260200190815260200160002054905081811015610a2b578381836040517fe450d38c000000000000000000000000000000000000000000000000000000008152600401610a2293929190610ff3565b60405180910390fd5b8181036000808673ffffffffffffffffffffffffffffffffffffffff1673ffffffffffffffffffffffffffffffffffffffff16815260200190815260200160002081905550505b600073ffffffffffffffffffffffffffffffffffffffff168273ffffffffffffffffffffffffffffffffffffffff1603610abb5780600260008282540392505081905550610b08565b806000808473ffffffffffffffffffffffffffffffffffffffff1673ffffffffffffffffffffffffffffffffffffffff168152602001908152602001600020600082825401925050819055505b8173ffffffffffffffffffffffffffffffffffffffff168373ffffffffffffffffffffffffffffffffffffffff167fddf252ad1be2c89b69c2b068fc378daa952ba7f163c4a11628f55a4df523b3ef83604051610b659190610d42565b60405180910390a3505050565b600081519050919050565b600082825260208201905092915050565b60005b83811015610bac578082015181840152602081019050610b91565b60008484015250505050565b6000601f19601f8301169050919050565b6000610bd482610b72565b610bde8185610b7d565b9350610bee818560208601610b8e565b610bf781610bb8565b840191505092915050565b60006020820190508181036000830152610c1c8184610bc9565b905092915050565b600080fd5b600073ffffffffffffffffffffffffffffffffffffffff82169050919050565b6000610c5482610c29565b9050919050565b610c6481610c49565b8114610c6f57600080fd5b50565b600081359050610c8181610c5b565b92915050565b6000819050919050565b610c9a81610c87565b8114610ca557600080fd5b50565b600081359050610cb781610c91565b92915050565b60008060408385031215610cd457610cd3610c24565b5b6000610ce285828601610c72565b9250506020610cf385828601610ca8565b9150509250929050565b60008115159050919050565b610d1281610cfd565b82525050565b6000602082019050610d2d6000830184610d09565b92915050565b610d3c81610c87565b82525050565b6000602082019050610d576000830184610d33565b92915050565b600080600060608486031215610d7657610d75610c24565b5b6000610d8486828701610c72565b9350506020610d9586828701610c72565b9250506040610da686828701610ca8565b9150509250925092565b600060ff82169050919050565b610dc681610db0565b82525050565b6000602082019050610de16000830184610dbd565b92915050565b600060208284031215610dfd57610dfc610c24565b5b6000610e0b84828501610c72565b91505092915050565b600060208284031215610e2a57610e29610c24565b5b6000610e3884828501610ca8565b91505092915050565b60008060408385031215610e5857610e57610c24565b5b6000610e6685828601610c72565b9250506020610e7785828601610c72565b9150509250929050565b7f4e487b7100000000000000000000000000000000000000000000000000000000600052602260045260246000fd5b60006002820490506001821680610ec857607f821691505b602082108103610edb57610eda610e81565b5b50919050565b7f596f7520617265206e6f7420617574686f72697a6520746f206d696e74206e6560008201527f7720546f6b656e00000000000000000000000000000000000000000000000000602082015250565b6000610f3d602783610b7d565b9150610f4882610ee1565b604082019050919050565b60006020820190508181036000830152610f6c81610f30565b9050919050565b7f4e487b7100000000000000000000000000000000000000000000000000000000600052601160045260246000fd5b6000610fad82610c87565b9150610fb883610c87565b9250828202610fc681610c87565b91508282048414831517610fdd57610fdc610f73565b5b5092915050565b610fed81610c49565b82525050565b60006060820190506110086000830186610fe4565b6110156020830185610d33565b6110226040830184610d33565b949350505050565b600060208201905061103f6000830184610fe4565b92915050565b600061105082610c87565b915061105b83610c87565b925082820190508082111561107357611072610f73565b5b9291505056fea26469706673582212208308ef3872913b45353b8e9978cc9816e0ca6b69a4ac2014254298f67bacd23b64736f6c63430008180033",
  "linkReferences": {},
  "deployedLinkReferences": {}
}