{
  "_format": "hh-sol-artifact-1",
  "contractName": "Swisstronik",
  "sourceName": "contracts/Swisstronik.sol",
  "abi": [
    {
      "inputs": [],
      "stateMutability": "nonpayable",
      "type": "constructor"
    },
    {
      "anonymous": false,
      "inputs": [
        {
          "indexed": false,
          "internalType": "string",
          "name": "title",
          "type": "string"
        },
        {
          "indexed": false,
          "internalType": "string",
          "name": "description",
          "type": "string"
        },
        {
          "indexed": false,
          "internalType": "uint256",
          "name": "goal",
          "type": "uint256"
        },
        {
          "indexed": false,
          "internalType": "uint256",
          "name": "deadline",
          "type": "uint256"
        }
      ],
      "name": "campaignCreated",
      "type": "event"
    },
    {
      "anonymous": false,
      "inputs": [
        {
          "indexed": false,
          "internalType": "uint256",
          "name": "campaignEnded",
          "type": "uint256"
        }
      ],
      "name": "campaignEnded",
      "type": "event"
    },
    {
      "anonymous": false,
      "inputs": [
        {
          "indexed": false,
          "internalType": "uint256",
          "name": "amountdonated",
          "type": "uint256"
        }
      ],
      "name": "donated",
      "type": "event"
    },
    {
      "inputs": [
        {
          "internalType": "uint256",
          "name": "",
          "type": "uint256"
        }
      ],
      "name": "_campaignList",
      "outputs": [
        {
          "internalType": "string",
          "name": "title",
          "type": "string"
        },
        {
          "internalType": "string",
          "name": "description",
          "type": "string"
        },
        {
          "internalType": "address",
          "name": "benefactor",
          "type": "address"
        },
        {
          "internalType": "uint256",
          "name": "goal",
          "type": "uint256"
        },
        {
          "internalType": "uint256",
          "name": "deadline",
          "type": "uint256"
        },
        {
          "internalType": "uint256",
          "name": "amountRaised",
          "type": "uint256"
        }
      ],
      "stateMutability": "view",
      "type": "function"
    },
    {
      "inputs": [
        {
          "internalType": "uint256",
          "name": "",
          "type": "uint256"
        }
      ],
      "name": "campaign",
      "outputs": [
        {
          "internalType": "string",
          "name": "title",
          "type": "string"
        },
        {
          "internalType": "string",
          "name": "description",
          "type": "string"
        },
        {
          "internalType": "address",
          "name": "benefactor",
          "type": "address"
        },
        {
          "internalType": "uint256",
          "name": "goal",
          "type": "uint256"
        },
        {
          "internalType": "uint256",
          "name": "deadline",
          "type": "uint256"
        },
        {
          "internalType": "uint256",
          "name": "amountRaised",
          "type": "uint256"
        }
      ],
      "stateMutability": "view",
      "type": "function"
    },
    {
      "inputs": [
        {
          "internalType": "string",
          "name": "title",
          "type": "string"
        },
        {
          "internalType": "string",
          "name": "description",
          "type": "string"
        },
        {
          "internalType": "uint256",
          "name": "goal",
          "type": "uint256"
        },
        {
          "internalType": "uint256",
          "name": "deadline",
          "type": "uint256"
        }
      ],
      "name": "createCampaign",
      "outputs": [],
      "stateMutability": "nonpayable",
      "type": "function"
    },
    {
      "inputs": [
        {
          "internalType": "uint256",
          "name": "_campaignId",
          "type": "uint256"
        }
      ],
      "name": "donateToCampaign",
      "outputs": [],
      "stateMutability": "payable",
      "type": "function"
    },
    {
      "inputs": [
        {
          "internalType": "uint256",
          "name": "_campaignId",
          "type": "uint256"
        }
      ],
      "name": "endCampaign",
      "outputs": [],
      "stateMutability": "payable",
      "type": "function"
    }
  ],
  "bytecode": "0x608060405234801561001057600080fd5b50336000806101000a81548173ffffffffffffffffffffffffffffffffffffffff021916908373ffffffffffffffffffffffffffffffffffffffff160217905550611532806100606000396000f3fe60806040526004361061004a5760003560e01c806342a4fda81461004f57806362b581fc1461006b578063a318f269146100ad578063ccd39037146100d6578063dd0408ae14610118575b600080fd5b610069600480360381019061006491906109c3565b610134565b005b34801561007757600080fd5b50610092600480360381019061008d91906109c3565b610276565b6040516100a496959493929190610ad0565b60405180910390f35b3480156100b957600080fd5b506100d460048036038101906100cf9190610c74565b6103f2565b005b3480156100e257600080fd5b506100fd60048036038101906100f891906109c3565b610629565b60405161010f96959493929190610ad0565b60405180910390f35b610132600480360381019061012d91906109c3565b610795565b005b6002548110610178576040517f08c379a000000000000000000000000000000000000000000000000000000000815260040161016f90610d5f565b60405180910390fd5b6000600360008381526020019081526020016000209050806004015442106101d5576040517f08c379a00000000000000000000000000000000000000000000000000000000081526004016101cc90610dcb565b60405180910390fd5b348160050160008282546101e99190610e1a565b925050819055506000816005015411610237576040517f08c379a000000000000000000000000000000000000000000000000000000000815260040161022e90610e9a565b60405180910390fd5b7f414d9a2b6dc643632f4c3bade88ac469f033fe2b456dd14a9c3e17a50d4f4ba4816005015460405161026a9190610eba565b60405180910390a15050565b6001818154811061028657600080fd5b90600052602060002090600602016000915090508060000180546102a990610f04565b80601f01602080910402602001604051908101604052809291908181526020018280546102d590610f04565b80156103225780601f106102f757610100808354040283529160200191610322565b820191906000526020600020905b81548152906001019060200180831161030557829003601f168201915b50505050509080600101805461033790610f04565b80601f016020809104026020016040519081016040528092919081815260200182805461036390610f04565b80156103b05780601f10610385576101008083540402835291602001916103b0565b820191906000526020600020905b81548152906001019060200180831161039357829003601f168201915b5050505050908060020160009054906101000a900473ffffffffffffffffffffffffffffffffffffffff16908060030154908060040154908060050154905086565b60008211610435576040517f08c379a000000000000000000000000000000000000000000000000000000000815260040161042c90610f81565b60405180910390fd5b600060036000600254815260200190815260200160002090508481600001908161045f919061114d565b5083816001019081610471919061114d565b5082816003018190555081426104879190610e1a565b8160040181905550338160020160006101000a81548173ffffffffffffffffffffffffffffffffffffffff021916908373ffffffffffffffffffffffffffffffffffffffff1602179055506000816005018190555060016003600060025481526020019081526020016000209080600181540180825580915050600190039060005260206000209060060201600090919091909150600082018160000190816105309190611235565b50600182018160010190816105459190611235565b506002820160009054906101000a900473ffffffffffffffffffffffffffffffffffffffff168160020160006101000a81548173ffffffffffffffffffffffffffffffffffffffff021916908373ffffffffffffffffffffffffffffffffffffffff16021790555060038201548160030155600482015481600401556005820154816005015550507fe5da26e231abd3c8731f7833e5b839fd2b0cc34a06a56c1ebe5e762d2a47a48785858585604051610602949392919061131d565b60405180910390a16002600081548092919061061d90611370565b91905055505050505050565b600360205280600052604060002060009150905080600001805461064c90610f04565b80601f016020809104026020016040519081016040528092919081815260200182805461067890610f04565b80156106c55780601f1061069a576101008083540402835291602001916106c5565b820191906000526020600020905b8154815290600101906020018083116106a857829003601f168201915b5050505050908060010180546106da90610f04565b80601f016020809104026020016040519081016040528092919081815260200182805461070690610f04565b80156107535780601f1061072857610100808354040283529160200191610753565b820191906000526020600020905b81548152906001019060200180831161073657829003601f168201915b5050505050908060020160009054906101000a900473ffffffffffffffffffffffffffffffffffffffff16908060030154908060040154908060050154905086565b3373ffffffffffffffffffffffffffffffffffffffff1660008054906101000a900473ffffffffffffffffffffffffffffffffffffffff1673ffffffffffffffffffffffffffffffffffffffff1614610823576040517f08c379a000000000000000000000000000000000000000000000000000000000815260040161081a90611404565b60405180910390fd5b6000600360008381526020019081526020016000209050600254821061087e576040517f08c379a000000000000000000000000000000000000000000000000000000000815260040161087590611470565b60405180910390fd5b80600401544210156108c5576040517f08c379a00000000000000000000000000000000000000000000000000000000081526004016108bc906114dc565b60405180910390fd5b8060020160009054906101000a900473ffffffffffffffffffffffffffffffffffffffff1673ffffffffffffffffffffffffffffffffffffffff166108fc82600501549081150290604051600060405180830381858888f19350505050158015610933573d6000803e3d6000fd5b507f8d0449d6fed7183f55f431e23867be7d8553beb7dc2e0844821c9c951a59ca52826040516109639190610eba565b60405180910390a1600081600501819055505050565b6000604051905090565b600080fd5b600080fd5b6000819050919050565b6109a08161098d565b81146109ab57600080fd5b50565b6000813590506109bd81610997565b92915050565b6000602082840312156109d9576109d8610983565b5b60006109e7848285016109ae565b91505092915050565b600081519050919050565b600082825260208201905092915050565b60005b83811015610a2a578082015181840152602081019050610a0f565b60008484015250505050565b6000601f19601f8301169050919050565b6000610a52826109f0565b610a5c81856109fb565b9350610a6c818560208601610a0c565b610a7581610a36565b840191505092915050565b600073ffffffffffffffffffffffffffffffffffffffff82169050919050565b6000610aab82610a80565b9050919050565b610abb81610aa0565b82525050565b610aca8161098d565b82525050565b600060c0820190508181036000830152610aea8189610a47565b90508181036020830152610afe8188610a47565b9050610b0d6040830187610ab2565b610b1a6060830186610ac1565b610b276080830185610ac1565b610b3460a0830184610ac1565b979650505050505050565b600080fd5b600080fd5b7f4e487b7100000000000000000000000000000000000000000000000000000000600052604160045260246000fd5b610b8182610a36565b810181811067ffffffffffffffff82111715610ba057610b9f610b49565b5b80604052505050565b6000610bb3610979565b9050610bbf8282610b78565b919050565b600067ffffffffffffffff821115610bdf57610bde610b49565b5b610be882610a36565b9050602081019050919050565b82818337600083830152505050565b6000610c17610c1284610bc4565b610ba9565b905082815260208101848484011115610c3357610c32610b44565b5b610c3e848285610bf5565b509392505050565b600082601f830112610c5b57610c5a610b3f565b5b8135610c6b848260208601610c04565b91505092915050565b60008060008060808587031215610c8e57610c8d610983565b5b600085013567ffffffffffffffff811115610cac57610cab610988565b5b610cb887828801610c46565b945050602085013567ffffffffffffffff811115610cd957610cd8610988565b5b610ce587828801610c46565b9350506040610cf6878288016109ae565b9250506060610d07878288016109ae565b91505092959194509250565b7f496e76616c696420496400000000000000000000000000000000000000000000600082015250565b6000610d49600a836109fb565b9150610d5482610d13565b602082019050919050565b60006020820190508181036000830152610d7881610d3c565b9050919050565b7f546869732063616d7061696e672068617320656e646564212100000000000000600082015250565b6000610db56019836109fb565b9150610dc082610d7f565b602082019050919050565b60006020820190508181036000830152610de481610da8565b9050919050565b7f4e487b7100000000000000000000000000000000000000000000000000000000600052601160045260246000fd5b6000610e258261098d565b9150610e308361098d565b9250828201905080821115610e4857610e47610deb565b5b92915050565b7f5468652066756e64206d7573742062652067726561746572207468616e203000600082015250565b6000610e84601f836109fb565b9150610e8f82610e4e565b602082019050919050565b60006020820190508181036000830152610eb381610e77565b9050919050565b6000602082019050610ecf6000830184610ac1565b92915050565b7f4e487b7100000000000000000000000000000000000000000000000000000000600052602260045260246000fd5b60006002820490506001821680610f1c57607f821691505b602082108103610f2f57610f2e610ed5565b5b50919050565b7f596f752063616e277420646f6e617465203076616c7565000000000000000000600082015250565b6000610f6b6017836109fb565b9150610f7682610f35565b602082019050919050565b60006020820190508181036000830152610f9a81610f5e565b9050919050565b60008190508160005260206000209050919050565b60006020601f8301049050919050565b600082821b905092915050565b6000600883026110037fffffffffffffffffffffffffffffffffffffffffffffffffffffffffffffffff82610fc6565b61100d8683610fc6565b95508019841693508086168417925050509392505050565b6000819050919050565b600061104a6110456110408461098d565b611025565b61098d565b9050919050565b6000819050919050565b6110648361102f565b61107861107082611051565b848454610fd3565b825550505050565b600090565b61108d611080565b61109881848461105b565b505050565b5b818110156110bc576110b1600082611085565b60018101905061109e565b5050565b601f821115611101576110d281610fa1565b6110db84610fb6565b810160208510156110ea578190505b6110fe6110f685610fb6565b83018261109d565b50505b505050565b600082821c905092915050565b600061112460001984600802611106565b1980831691505092915050565b600061113d8383611113565b9150826002028217905092915050565b611156826109f0565b67ffffffffffffffff81111561116f5761116e610b49565b5b6111798254610f04565b6111848282856110c0565b600060209050601f8311600181146111b757600084156111a5578287015190505b6111af8582611131565b865550611217565b601f1984166111c586610fa1565b60005b828110156111ed578489015182556001820191506020850194506020810190506111c8565b8683101561120a5784890151611206601f891682611113565b8355505b6001600288020188555050505b505050505050565b60008154905061122e81610f04565b9050919050565b81810361124357505061131b565b61124c8261121f565b67ffffffffffffffff81111561126557611264610b49565b5b61126f8254610f04565b61127a8282856110c0565b6000601f8311600181146112a95760008415611297578287015490505b6112a18582611131565b865550611314565b601f1984166112b787610fa1565b96506112c286610fa1565b60005b828110156112ea578489015482556001820191506001850194506020810190506112c5565b868310156113075784890154611303601f891682611113565b8355505b6001600288020188555050505b5050505050505b565b600060808201905081810360008301526113378187610a47565b9050818103602083015261134b8186610a47565b905061135a6040830185610ac1565b6113676060830184610ac1565b95945050505050565b600061137b8261098d565b91507fffffffffffffffffffffffffffffffffffffffffffffffffffffffffffffffff82036113ad576113ac610deb565b5b600182019050919050565b7f4f6e6c792061646472657373206f776e65720000000000000000000000000000600082015250565b60006113ee6012836109fb565b91506113f9826113b8565b602082019050919050565b6000602082019050818103600083015261141d816113e1565b9050919050565b7f43616d61706169676e20646f6573206e6f742065786973740000000000000000600082015250565b600061145a6018836109fb565b915061146582611424565b602082019050919050565b600060208201905081810360008301526114898161144d565b9050919050565b7f596f752063616e277420646f6e61746521000000000000000000000000000000600082015250565b60006114c66011836109fb565b91506114d182611490565b602082019050919050565b600060208201905081810360008301526114f5816114b9565b905091905056fea26469706673582212206f0fd07dfb468920bf82310b8c141dcce679e2c9b30e11ffdd6992928e88097c64736f6c63430008180033",
  "linkReferences": {},
  "deployedLinkReferences": {}
}